:100000000C9487050C94CE050C94CE050C94CE056B
:100010000C94CE050C94CE050C94CE050C94CE0514
:100020000C94CE050C94CE050C94552C0C94272DD5
:100030000C9432220C94CE050C94CE050C94CE0573
:100040000C94CE050C94CE050C94CE050C94CE05E4
:100050000C94CE050C949A220C94CE050C94CE05EB
:100060000C94CE050C94CE050C94CE050C94CE05C4
:100070000C94CE050C94CE050C94CE050C94CE05B4
:100080000C94FA0F0C94CE050C94CE050C94CE056E
:100090000C94CE050C94CE050C94CE050C94CE0594
:1000A0000C94CE050C94CE050C94CE05F1050306F8
:1000B0001706490629062B063E067606AC06B1064B
:1000C000B606BC06C206C80601070D0719071F07BA
:1000D00031073D074307550761076D07E506EA0647
:1000E000B606BC06C206EF06FB0607071307250780
:1000F0002B07370749074F075B076707501850184A
:100100007F187F18BE18DE18341A341AE918341A0A
:1001100099199919001A091A341A2E1AA619A6192A
:10012000A619A619A619A619A619A619A619A619D7
:10013000A619A619A619A619A619A619B619C41999
:10014000CB19D219DC19B11AB11AC31AC31ABA1AC7
:10015000C31AC31AC31AB11AB11ABF1AC31AC31ADF
:10016000BF1A942DB62DA42EB62DA42EFB2D1E2E17
:10017000A42E732E862E07634236B79BD8A71A3952
:10018000685618AEBAAB558C1D3CB7CC5763BD6DE5
:10019000EDFD753EF6177231BF000000803F08008C
:1001A0000000BE922449123EABAAAA2ABECDCCCCF6
:1001B0004C3E00000080BEABAAAAAA3E0000000090
:1001C000BF000000803F0000000000084178D3BB62
:1001D0004387D1133D190E3CC3BD4282AD2B3E680F
:1001E000EC8276BED98FE1A93E4C80EFFFBE01C400
:1001F000FF7F3F000000000001E001E1011702174E
:100200000001E301E1011702170001E001170217E5
:100210000001E3011702170001E0011A021A0001B0
:10022000E3011A021A0001E201E001340234000184
:10023000E301E0013402340001E201E00133023362
:100240000001E301E0013302330001E0011902196A
:100250000001E3011902190001E001060206000194
:10026000E3010602060001E0011B021B0001E3019D
:100270001B021B0001E0011D021D0001E3011D0224
:100280001D0001E0010A020A0001E3010A020A005E
:1002900001E0010902090001E30109020900023835
:1002A0000001E101380002380001E3013800022BAF
:1002B0000001E0012B00022B0001E2012B00022BC8
:1002C0000001E3012B00022B0001E3012B00022BB4
:1002D0000001E2012B0014001A00080015001700AD
:1002E000010001001C0018000C001200130004465D
:1002F0001600074709000A00280034000B000D0013
:100300000E000F0033681D001B00060019000500D9
:100310004B004E0011001000360037003800E2009C
:10032000E000E3004170E100E3002B002C46427046
:10033000AA00A900AE002B6F14001A0009001300D8
:100340000A000D000F0018001C0033002A0029616C
:10035000040015001647170007000B0011000800E5
:100360000C0012003400E1001D001B000600190003
:1003700005000E00100036003700380028624600E5
:10038000E700E200E30041702C462C464270AB00CF
:10039000AA00A900AE0034003600370013001C008C
:1003A0000100010009000A00060015000F0004000A
:1003B0001200080018460C0029002D0007000B0051
:1003C000170011001600330014000D000E001B0072
:1003D0004B004E00050010001A0019001D00E2003D
:1003E000E000E3004170E100E3002B002C46427086
:1003F000AA00A900AE0035021E021F02200221023F
:1004000022022302240225022602270238023A0091
:100410003B003C003D003E003F00010035002E0245
:100420002F023002380040004100420043004400E7
:100430004500010001002E002F00300031000100B6
:10044000010001000100010001004C002A00280009
:100450000100AC00AB001E001F00200021002200A4
:1004600001000100230024002500260027002100B0
:100470002200230036000100010001002D002E02A1
:100480002502380031022400250026003700010033
:100490000100010001002E00010001000100437075
:1004A0000100010001000100010001000100010044
:1004B0000100010001001E001E001E001E001E00A3
:1004C0001E001E001E001E001E001E001E0000005A
:1004D00014001A000800150017001C0018000C007A
:1004E000120013002F00000004001600070009008E
:1004F0000A000B000D000E000F00330034004470A2
:1005000000000000060019000000000011001000AB
:1005100000000000000005300030023001303502DC
:100520000100010049004A0052004D002A00E0008D
:10053000E300E200E1002800010001004B00500050
:1005400051004F000B3007300A30083009303500B9
:10055000010001004E00093008300A300730010068
:100560000100010001000100010001000100010083
:100570000100010001000100FD00FE00FF0001007C
:10058000010001000100FB00F000FC00010001007F
:100590000100F500F400010001000100F900F20083
:1005A000F100F30001000100010001000100010061
:1005B00001000100FA00F400F500F600F700010068
:1005C0000100010001000100010001000100010023
:1005D0000100010001000000000000000000000018
:1005E000000000000000000000000000000000000B
:1005F00000000000000000000000000000000000FB
:1006000000000000000000000000000000000000EA
:1006100000000000000000000000000000000000DA
:1008D0000000000000000100010001000100010013
:1008E000010001000100010001003D703F700100A6
:1008F000010001001570167013700A7001000100EC
:1009000001000100010001001C701B7018701970BB
:100910001D701E70010001000100010001000100B6
:1009200001000100010001000100010001000100BF
:1009300001000100007028035400680065002000D9
:1009400050006C0061006E0063006B0020004B00E3
:100950006500790062006F006100720064000000B1
:100960002C034F007200740068006F006C00690077
:100970006E0065006100720020004B006500790088
:1009800062006F00610072006400730000000403E5
:10099000090409026D00040100A0FA090400000125
:1009A0000301010009211101000122400007058116
:1009B0000308000A090401000103010200092111D2
:1009C000010001224D000705820308000A09040204
:1009D0000001030000000921110100012236000777
:1009E00005830308000A090403000103000000094D
:1009F00021110100012239000705840310000112B2
:100A000001100100000008EDFE606004000102001A
:100A10000105010906A101050719E029E7150025CF
:100A200001950875018102050819012905950575CB
:100A300001910295017503910105071900297715A8
:100A4000002501957875018102C005010980A10189
:100A5000850216810026B7001A81002AB70075109A
:100A600095018100C0050C0901A101850316010053
:100A7000269C021A01002A9C02751095018100C073
:100A800005010902A1010901A100050919012905B2
:100A900015002501950575018102950175038101F8
:100AA0000501093009311581257F950275088106F8
:100AB00009381581257F950175088106050C0A38CE
:100AC000021581257F950175088106C0C0050109C1
:100AD00006A101050719E029E7150025019508750C
:100AE0000181029501750881010508190129059503
:100AF00005750191029501750391010507190029FA
:100B0000FF150026FF00950675088100C00011241E
:100B10001FBECFEFDAE0DEBFCDBF04B603FE27C0B5
:100B20008091AE049091AF04A091B004B091B10453
:100B30008730904BA740B04BD1F41092AE04109286
:100B4000AF041092B0041092B10414BE84B7877F32
:100B500084BF0FB6F894A895809160008861809357
:100B60006000109260000FBEE0E0F8E3099513E02A
:100B7000A0E0B1E0E8EAF6E602C005900D92A033ED
:100B8000B107D9F714E0A0E3B3E001C01D92AE3A7B
:100B9000B107E1F70E949C290C9452330C94000099
:100BA0006E9A769A0C948E07CF93DF93EC010E9495
:100BB000BE21BE0180E090E0DF91CF910C94591EE0
:100BC0000F931F93CF93FC01ED53F047E830F105ED
:100BD00008F09DC0DB01EA5AFF4F1296CC910C94AD
:100BE0001733CC2309F494C000E010E0980140E0F2
:100BF00064E070E088E292E00E94781361E070E0C7
:100C000080E090E011C0CC2309F482C000E010E045
:100C1000980140E066E070E088EB91E00E94781374
:100C200062E070E080E090E00E94591E6EC0CC232C
:100C300009F46EC000E010E0980140E068E070E068
:100C400088EE91E00E94781364E070E080E090E02C
:100C5000EBCF83E001C084E0CC2341F00E94D61E9C
:100C600040E164E083E00E94C2074FC00E94F71E8B
:100C700040E164E083E00E94C2074AC085EECC23D5
:100C800029F00E94E9160E94A2273FC00E94BC17CB
:100C90003FC0CC23E9F10E942D0F00E010E0980145
:100CA00040E066E070E088E891E00E94781384E01C
:100CB0000E94F71E83E00E94F71E80E10E94F71E4B
:100CC00085E00E94D61E0E94AB21811102C00E94C5
:100CD00087210E94C32190E090939F0480939E04FB
:100CE000806880939E040E94C7210FC0CC2381F0AE
:100CF00000E010E0980140E066E070E088E591E0F7
:100D00000E94781385E00E94F71EC0E001C0C1E098
:100D10008C2FCF911F910F9108951F93CF93DF9345
:100D2000EC01162F0E94AB21811102C00E94872185
:100D300080919E04412F50E082FF3EC083FF3CC063
:100D40004031510518F080E090E0CCC0FA01E25A41
:100D5000FF4F9A810C94173391111FC086EC92E0DB
:100D6000C1C091111DC086EB92E0BCC08A81811187
:100D70001AC08EEA92E0B6C08A81811117C086EA55
:100D800092E0B0C08A81811114C08EE992E0AAC0BD
:100D90009923C9F280E992E0A5C089EC92E0A2C053
:100DA00089EB92E09FC081EB92E09CC089EA92E0DF
:100DB00099C081EA92E096C04031510520F6FA01CF
:100DC000E259FF4F9A810C94173391110EC08EECAB
:100DD00092E088C091110CC08EEB92E083C0992301
:100DE00009F4B1CF87E992E07DC081ED92E07AC04D
:100DF00081EC92E077C0992309F4A5CF89E892E0CD
:100E000071C0992309F49FCF82E892E06BC09923C7
:100E100009F499CF8BE792E065C0992309F493CF49
:100E200084E792E05FC0992309F48DCF8DE692E0CC
:100E300059C0992309F487CF86E692E053C09923DD
:100E400009F481CF88E592E04DC0992309F47BCF66
:100E50008FE592E047C0992309F475CF81E592E0D0
:100E600041C0992309F46FCF8AE492E03BC09923F3
:100E700009F469CF81E492E035C0992309F463CF86
:100E800088E392E02FC0992309F45DCF86E292E0D7
:100E900029C0992309F457CF8FE292E023C0992308
:100EA00009F451CF8FE192E01DC0992309F44BCF93
:100EB00088E192E017C0992309F445CF81E192E0DF
:100EC00011C0992309F43FCF8AE092E00BC0992327
:100ED00009F439CF81E092E005C0992309F433CFBA
:100EE00088EF91E0DF91CF911F9108950F931F93A9
:100EF0002FEF89EF90E0215080409040E1F700C053
:100F0000000000E010E0980140E065E070E088E457
:100F100092E00E9478131F910F91089584E090E071
:100F20000E94D4050C9476070F931F9300E010E005
:100F3000980140E063E070E080E091E00E94781367
:100F40002FEF82E597E0215080409040E1F700C00C
:100F500000001F910F910C942D0F0F931F9300E031
:100F600010E0980140E068E070E088E191E00E94C4
:100F700078131F910F9108950C94AD0781E00895A7
:100F80000C94E005CF92DF92EF92FF920F931F93A4
:100F900001E010E020E030E06801790104C0CC0CF1
:100FA000DD1CEE1CFF1C8A95D2F704C0000F111F38
:100FB000221F331F6A95D2F70C291D292E293F299C
:100FC000C0905204D0905304E0905404F090550423
:100FD000C022D122E222F322842FC016D106E206DB
:100FE000F30641F41F910F91FF90EF90DF90CF90A7
:100FF0000C94D61E1F910F91FF90EF90DF90CF9031
:101000000C94F71E0E94C50E0C94520C279A2F9830
:101010008FEF9FEF90938700809386008AE0809304
:10102000800089E1809381000C944B270E94060880
:101030000C94D005282F2F9880918000211108C092
:10104000877F8093800010928D0010928C0008950D
:10105000886080938000233019F48FEF9FEF0FC0DA
:1010600083E090E0821B9109880F991F2FEF3FEFDB
:10107000A90102C0569547958A95E2F7CA01909357
:101080008D0080938C00089508950C9444080C946E
:1010900045080E949F1A0E942D0F0E9494072FEF6F
:1010A00084E39CE0215080409040E1F700C00000C4
:1010B0000C94BF22FF920F931F93CF93DF938C0169
:1010C000FC01C081D1818091FB03811113C0828119
:1010D000882349F0CE010E94ED1FF82E682FCE0123
:1010E0000E94921F04C0CE010E94C11FF82EBE01B3
:1010F0008F2D04C0CE010E94ED1FBE010E94510B36
:10110000EC01B8010E94C007882309F413C1B8019B
:10111000CE010E94570D882309F40CC1B801CE01FD
:101120000E94E10B882309F405C1C431F0E7DF0711
:1011300008F0CEC0C23080E7D80708F4A3C0F80199
:101140008281882309F4AAC00E94AB21811102C0C8
:101150000E9487210E94C32190E090939F04809376
:101160009E04C230F0E7DF0721F480919E04816085
:1011700082C0C33080E7D80721F480919E0482604A
:101180007AC0C430E0E7DE0721F480919E048460D9
:1011900072C0C530F0E7DF0719F480919E0427C0C4
:1011A000C63080E7D80721F480919E04806163C037
:1011B000C730E0E7DE0721F480919E0480625BC0C7
:1011C000C830F0E7DF0721F480919E04806453C0AB
:1011D000C93080E7D80721F480919E0480684BC015
:1011E000CA30E0E7DE0729F480919E0484608860BD
:1011F00042C0CB30F0E7DF0721F480919E048E7F60
:101200003AC0CC3080E7D80721F480919E048D7FCE
:1012100032C0CD30E0E7DE0721F480919E048B7F61
:101220002AC0CE30F0E7DF0719F480919E0422C077
:10123000CF3080E7D80721F480919E048F7E1BC0B9
:10124000C031E0E7DE0721F480919E048F7D13C05A
:10125000C131F0E7DF0721F480919E048F7B0BC042
:10126000C231D04721F480919E048F7704C08091D1
:101270009E048B7F877F80939E0480919E040E94B2
:10128000C72158C0C115E0E7DE0781F0C130D04763
:10129000A9F081E08093300380933103C801DF918E
:1012A000CF911F910F91FF900C94BE07F80182819E
:1012B000882309F43FC00E9449083CC0F80182819C
:1012C0008823C1F180916F04816080936F0432C0E4
:1012D000CB3380E7D807A1F4F8018281882321F07D
:1012E0001092300382E016C080913003811106C055
:1012F00086E20E94E91686E20E94BC1782E018C0CE
:10130000CC33D04731F6F8018281882331F0109236
:10131000310380E20E940B180DC0809131038111CE
:1013200006C087E20E94E91687E20E94BC1780E2AD
:101330000E94121880E0DF91CF911F910F91FF90D2
:1013400008952CE0729FF001112430E3839FE00D9B
:10135000F11D1124E60FF11DEE0FFF1FEA52FD4FA4
:10136000859194910E94630B811540E5940708F0E4
:1013700047C0811520E4920708F01BC1883E910503
:1013800020F5803E910508F08AC1883A910578F4ED
:10139000853A910508F0A5C08130910509F47FC117
:1013A00008F436C18430910508F079C131C18D3B14
:1013B000910508F4A1C0803C910508F429C1FC0105
:1013C000EE0FFF1FEA54F84FEEC0811530E293078D
:1013D00058F4811541E0940708F061C1803F910500
:1013E00008F416C190650895811520E3920708F06E
:1013F000DDC0FC01FF70EE0FFF1FEA5CF64FD3C0AB
:10140000811535E5930708F043C0811544E594073D
:1014100008F0E6C0811522E5920708F5811531E54F
:10142000930708F0C9C0482F437021E030E002C0A4
:10143000220F331F4A95E2F73C68AC0164E05695F1
:1014400047956A95E1F74370342B8F7086958695A2
:1014500040E2849FC0011124822B932B0895282FF2
:1014600026952695AC01437055278115934508F0C4
:10147000A8C080E2289F9001112481E090E002C082
:10148000880F991F4A95E2F7822B932B9C68089549
:101490008F3240E7940790F48F3120E7920708F0ED
:1014A000AAC0811536E5930708F49FC09C01305609
:1014B0002115304108F0ACC09F709BC0803320E7FD
:1014C000920709F49FC008F49AC0813340E794075B
:1014D00009F49BC08233904709F09AC080E093EDF5
:1014E0000895853A910509F496C0863A910509F068
:1014F00095C082E890E40895883A910509F491C076
:10150000893A910509F490C08A3A910509F48FC08F
:101510008B3A910509F48EC08C3A910509F48DC07F
:101520008B3B910509F48CC08C3B910509F48BC071
:101530008D3A910509F48AC0803B910509F489C070
:101540008E3A910509F488C08F3A910509F487C055
:10155000813B910509F486C0823B910509F485C061
:10156000833B910509F484C0843B910509F483C051
:10157000853B910509F482C0863B910509F481C041
:10158000873B910509F480C0883B910509F47FC031
:10159000893B910509F47EC08A3B910509F47DC021
:1015A00080E094E408958591949108959927906C32
:1015B00008959F70906A0895982F8827816F906A88
:1015C000089590E2299F9001112481E090E002C0EB
:1015D000880F991F4A95E2F7822B932B9A680895FA
:1015E000982F8827846F906A08958F719927982F74
:1015F0008827906208958F519047946D089580E0F8
:1016000091ED089580E090ED089580E092ED0895C9
:1016100080E090E0089581E890E4089583E890E404
:10162000089582EE94E4089589EE94E408958AEE94
:1016300094E4089585EB94E4089586EB94E408958A
:1016400083EB94E4089584EB94E4089587EB94E4A9
:1016500008958CEC94E408958DEC94E4089583E867
:1016600095E408958AE895E4089582E995E408955B
:1016700084E995E4089581E296E4089583E296E48E
:10168000089584E296E4089585E296E4089586E25A
:1016900096E4089587E296E408958AE296E4089530
:1016A00008959CE0799FF001112490E3899FE00D5B
:1016B000F11D1124E60FF11DEE0FFF1FEA52FD4F41
:1016C0008591949108958238910549F1B0F4813360
:1016D000910509F458C048F48932910509F44EC0C7
:1016E0008A32910509F454C008958533910509F4AF
:1016F00040C08933910599F00895833E910529F101
:1017000038F4803E910591F0823E9105A1F0089554
:10171000863E9105F9F0873E910531F108952091BB
:101720009E0420FD3AC021FD38C0089580919E049A
:1017300080FD35C032C080919E0482FF32C080910E
:101740009E0484FD30C083EE39C080919E0482FDEA
:1017500028C0F5CF80919E0483FF27C080919E040E
:1017600084FD21C087EE2AC080919E0483FD1DC0A8
:10177000F5CF80919E0485FD1AC01BC080919E0408
:1017800085FD17C014C080919E0486FD14C015C04D
:1017900080919E0486FD11C00EC080EE0FC089E3CB
:1017A0000DC082EE0BC080E009C086EE07C089E262
:1017B00005C085E303C08AE201C081E390E008959B
:1017C00008950F931F93CF93FB012281211102C033
:1017D000C1E041C08C01C0913F03C11125C08431DB
:1017E0009047B1F70E94E00B81E080933F030E9495
:1017F000642290933E0380933D0310923203109233
:101800003403109233031092360310923503109272
:1018100038031092370310923A0310923903109252
:101820003C0310923B0317C080913D0390913E030F
:101830000E947022883C910558F690913203E92F5E
:10184000F0E0EE0FFF1FED5CFC4F118300839F5F04
:1018500090933203C0E08C2FCF911F910F91089588
:10186000AEEBB2E041E050E08D91E82FF0E094E083
:10187000F595E7959A95E1F721A18F70BA0102C01D
:10188000660F771F8A95E2F7CB01962F90959223EA
:1018900091A392A1892B82A372E0A23CB70721F702
:1018A000089508950C94510C85B7806885BF85B75D
:1018B000806885BF0E94300CA2EBB2E041E050E0AE
:1018C0008D91E82FF0E094E0F595E7959A95E1F792
:1018D00021A18F70BA0102C0660F771F8A95E2F7C7
:1018E000CB01962F9095922391A392A1892B82A34D
:1018F00072E0AE3BB70721F71092490310924803FC
:10190000109241031092400310924B0310924A032D
:10191000109243031092420310924D0310924C0315
:10192000109245031092440310924F0310924E03FD
:1019300010924703109246030C941608CF92DF9240
:10194000EF92FF920F931F93CF93DF9300E413E086
:10195000CEEBD2E0EE24E394F12C35E0C32EDC2E66
:1019600044E0D40E8991E82FF0E094E0F595E795F6
:101970009A95E1F721A18F70A70102C0440F551F6E
:101980008A95E2F7CA01922F982B91A392A1809594
:10199000892382A350EA5A95F1F7E2EBF2E020E0C6
:1019A00030E040E050E06191A62FB0E084E0B595D2
:1019B000A7958A95E1F790968C9190E06F7002C0A0
:1019C000959587956A95E2F780FD08C0C701042EBA
:1019D00002C0880F991F0A94E2F702C080E090E0ED
:1019E000282B392B4F5F5F4F4C305105E1F6F80142
:1019F000819191918F018217930729F0329731835A
:101A00002083C09270020E94300CDC12ABCF809118
:101A10007002882361F1815080937002882339F02D
:101A20008FE99FE00197F1F700C0000020C080918E
:101A30004003909141039093490380934803809120
:101A400042039091430390934B0380934A03809108
:101A500044039091450390934D0380934C038091F0
:101A600046039091470390934F0380934E030E9447
:101A7000020881E0DF91CF911F910F91FF90EF90CD
:101A8000DF90CF900895E82FF0E0EE0FFF1FE85BA6
:101A9000FC4F8081918108950895109297030C94D2
:101AA0002D0F81E0809397030C94BC0708958F92CB
:101AB0009F92AF92BF92EF92FF920F931F93CF939B
:101AC000DF93CDB7DEB7A3970FB6F894DEBF0FBE96
:101AD000CDBF7C018B01853120E7920741F4FB01EA
:101AE0008281882309F458C00E940F140BC08631EC
:101AF000F0E79F0749F4FB018281882309F44CC079
:101B00000E94181480E030C18731F0E79F0751F43C
:101B1000FB018281882309F43FC00E940B148111CC
:101B2000EFCFE2CF8831F0E79F0739F4FB018281E4
:101B3000882391F10E94510DE5CF8931F0E79F078D
:101B400039F4FB018281882339F10E944D0DDACFEF
:101B50008A31F0E79F0749F4FB0182818823E1F095
:101B6000809197038111F1CFE5CF8B31F0E79F078B
:101B700039F4FB018281882379F00E941F1409C087
:101B80008C31904749F4FB018281882329F00E941F
:101B90002A140E94AD07B6CF80919703882309F4D9
:101BA000E2C0F0EEEF16F10489F4F8018281882397
:101BB00009F45FC00E942D0F81E08093960310927C
:101BC000950310929403109253039CCFF2EEEF16FC
:101BD000F10499F4F8018281882309F44AC00E9433
:101BE0002D0F80919603882319F081E0809395034F
:101BF000109296031092940385CFF3EEEF16F10442
:101C0000B1F4F80182818823A1F1809195038823A2
:101C100081F10E942D0F1092960381E0809394032E
:101C20001092520310925103109250036BCFF2E5C1
:101C3000EF16F10459F4F8018281882309F494C065
:101C400080917102909172020A970EC0F1E5EF1631
:101C5000F10479F4F8018281882309F485C0809128
:101C60007102909172020A969093720280937102AF
:101C700049CF4091750283E2EFE8F2E0DE01119670
:101C800001900D928A95E1F7F801808121E030E022
:101C90002C0F3D1F280F311DC90120917302309177
:101CA0007402FC01E20FF31F6081772767FD7095D6
:101CB000640F711D882777FD8095982F0E94F42F5F
:101CC00020E030E040E451E40E944A2F4B015C01E7
:101CD000F801218184E090E0821B9109BC018827F2
:101CE00077FD8095982F0E94F42F9B01AC01C501D0
:101CF000B4010E94D92E9B01AC0160E070E080E04D
:101D000090E40E94783120E030E04CED50E40E94F5
:101D10000B314B015C01F80182818823D1F04FE047
:101D200050E0C501B4010E941813809196038823E6
:101D3000A1F08091530324E0829FF0011124EC5A1A
:101D4000FC4F80829182A282B3828F5F8093530383
:101D500004C0C501B4010E94600F81E03FEFE316AB
:101D6000F10410F4CFCE81E0A3960FB6F894DEBF55
:101D70000FBECDBFDF91CF911F910F91FF90EF90DC
:101D8000BF90AF909F908F90089580919403882387
:101D900009F448C08091500390915103009779F461
:101DA0000E946422909351038093500380915203C8
:101DB00090E0009771F48091530390E00AC00E9474
:101DC000702220917102309172022817390740F376
:101DD00008950197880F991F880F991FFC01EC5AED
:101DE000FC4F60817181828193810E94600FE0913C
:101DF000520384E0E89FF0011124EC5AFC4F60810B
:101E00007181828193814FE050E00E94181380918C
:101E1000520390E001966091530370E00E940333F7
:101E20008093520308950E94AB21811102C00E9449
:101E300087210E94D521809396043E9A809171005B
:101E40008D7F8093710082E0809390008AE180937F
:101E5000910081E080939A03089580919A03811103
:101E600002C00E94130F1092EA031092E9038091BE
:101E700071008D7F80937100809190008F738093AB
:101E800090001092AC031092AB031092E3031092F7
:101E9000E4031092E5031092E6031092E20310921D
:101EA000E103E1ECF3E0A1EBB3E0119211921192A6
:101EB00011921D921D9283E0E13EF807B1F708955B
:101EC000CF92DF92EF92FF920F931F93CF93DF9306
:101ED0002091AB03222309F484C06B017C01809123
:101EE0009A03811102C00E94130F01EE13E0C7E0B4
:101EF000D0E0A7019601F8019291829172916291CE
:101F00008F010E94452F811131C0FE01EE0FFF1F8E
:101F1000EE0FFF1FEF53FC4F1082118212821382CB
:101F2000DE01AA0FBB1FAF54BC4F11961C921E922C
:101F3000C730D105E9F021964481558166817781CA
:101F400040835183628373831482158216821782C1
:101F500012968D919C91139711969C938E93139644
:101F60001C921E92129734961296E2CF219708F691
:101F70008091E9039091EA03019797FD05C0909342
:101F8000EA038093E90304C01092EA031092E90384
:101F90008091E9039091EA032091E7033091E803EF
:101FA0002817390724F01092E8031092E703892BD1
:101FB000C1F4809171008D7F8093710080919000B9
:101FC0008F73809390001092E3031092E4031092B9
:101FD000E5031092E6031092E2031092E1031092DF
:101FE000AB03DF91CF911F910F91FF90EF90DF90A6
:101FF000CF9008951F920F920FB60F9211244F9217
:102000005F926F927F928F929F92AF92BF92CF9288
:10201000DF92EF92FF922F933F934F935F936F93D3
:102020007F938F939F93AF93BF93CF93DF93EF9360
:10203000FF938091AB03882309F49BC1C091E9030E
:10204000D091EA031C161D060CF093C140909B032F
:1020500050909C0360909D0370909E0320E030E0C0
:10206000A901C301B2010E94063118160CF065C027
:10207000C130D10509F452C08091E7039091E80383
:10208000BE010E9403337C019093E8038093E70331
:102090008090AD039090AE03A090AF03B090B003DA
:1020A00020E030E040E85FE3C501B4010E94D92E92
:1020B0006093AD037093AE038093AF039093B0032E
:1020C000F701EE0FFF1FEE0FFF1FEF53FC4FA301B1
:1020D000920160817181828193810E944A2F20E068
:1020E00030E040E05EE30E940B319B01AC01C50192
:1020F000B4010E94063118168CF4C7010196BE0186
:102100000E9403339093E8038093E7031092AD039A
:102110001092AE031092AF031092B003E091E70368
:10212000F091E803EE0FFF1FEE0FFF1FEF53FC4F80
:102130006081718182819381D0C0C090E303D0908F
:10214000E403E090E503F090E60320E030E0A9012D
:10215000C701B6010E94452F2197882309F4A2C028
:10216000FE01EE0FFF1FEE0FFF1FEF53FC4F8080AD
:102170009180A280B380A5019401C701B6010E949D
:10218000452F87FF31C0A501940160E070E08CED20
:1021900093EC0E944A2F20E030E040E451E40E949A
:1021A0004A2F20E030E040E05FE30E940B319B01CA
:1021B000AC0160E070E080E090E40E9478319B0127
:1021C000AC01C501B4010E940B319B01AC01C701F8
:1021D000B6010E94452F87FF07C0A701960160E066
:1021E00070E08CED93E439C0A5019401C701B601FC
:1021F0000E94063118160CF055C0A501940160E04C
:1022000070E08CED93E40E944A2F20E030E040E43F
:1022100051E40E944A2F20E030E040E05FE30E945A
:102220000B319B01AC0160E070E080E090E40E9423
:1022300078319B01AC01C501B4010E940B319B01B7
:10224000AC01C701B6010E94063118165CF5A70162
:10225000960160E070E08CED93EC0E944A2F20E044
:1022600030E040E451E40E944A2F20E030E040E0BA
:102270005FE30E940B319B01AC0160E070E080E005
:1022800090E40E9478319B01AC01C701B6010E9425
:102290000B316093E3037093E4038093E503909321
:1022A000E60313C0FE01EE0FFF1FEE0FFF1FEF53FB
:1022B000FC4F80819181A281B3818093E30390934D
:1022C000E403A093E503B093E6036091E303709108
:1022D000E4038091E5039091E60320919803309107
:1022E00099032F3F4FEF340731F02F5F3F4F30936B
:1022F0009903209398030E9435146B017C0120E020
:1023000034E244EF51E40E94452F87FF08C086EF76
:10231000C82E88E2D82E84EFE82E81E4F82E20E043
:1023200030E040E051E4C701B6010E940B319B014F
:10233000AC0160E074E284E79BE40E944A2F6B01E9
:102340007C010E94C32F70939700609396002091A8
:102350007602309177024091780250917902C7015C
:10236000B6010E940B310E94C32F709399006093B5
:1023700098008091AC03882309F433C1C090A7036F
:10238000D090A803E090A903F090AA0320E030E0E9
:10239000A901C701B6010E9406311816D4F5809133
:1023A0009803909199038F3F2FEF920729F00196A0
:1023B0009093990380939803C701B6010E94351446
:1023C00020E030E040E051E40E940B319B01AC0181
:1023D00060E074E284E79BE40E944A2F6B017C0179
:1023E0000E94C32F7093970060939600209176020D
:1023F000309177024091780250917902C701B6017D
:102400000E940B310E94C32F709399006093980033
:1024100008C01092970010929600109299001092A6
:1024200098006091A1037091A2036F5F7F4F70933A
:10243000A2036093A103209196003091970080E061
:1024400090E0232BF1F0C0919600D09197000E946C
:10245000F22F6B017C01BE0180E090E00E94F22F20
:102460009B01AC016091A3037091A4038091A5032B
:102470009091A6030E944A2F20E03FEF4FE757E4D8
:1024800010C00E94F22F6B017C0120E030EE4FEF74
:1024900054E46091A3037091A4038091A5039091EB
:1024A000A6030E940B319B01AC01C701B6010E943B
:1024B000063187FD96C080919F038F5F80939F03B5
:1024C00090E0209192043091930482179307A0F03A
:1024D00080919D04882319F010929F030DC0809174
:1024E00071008D7F80937100809190008F73809335
:1024F00090001092AC037DC08091A003C0919F0317
:10250000811128C0C0909704D0909804E09099045D
:10251000F0909A0420E030E0A901C701B6010E94C2
:1025200006311816BCF481E08093A0031092A70333
:102530001092A8031092A9031092AA03C092A303B9
:10254000D092A403E092A503F092A603C150C093D9
:102550009F0343C01092A003109299031092980316
:10256000E0919404F091950448E0C49FE00DF11DC2
:10257000112480819181A281B3818093A7039093DC
:10258000A803A093A903B093AA0320E030E040E899
:102590005EE364817581868197810E940B316B01B6
:1025A0007C0180917A02682F70E080E090E00E94C8
:1025B000F22F20E030E048EC52E40E944A2F9B01C9
:1025C000AC01C701B6010E940B316093A303709365
:1025D000A4038093A5039093A6031092A2031092E4
:1025E000A1038091960480FD04C01092AC03109268
:1025F000AB03FF91EF91DF91CF91BF91AF919F918D
:102600008F917F916F915F914F913F912F91FF90AB
:10261000EF90DF90CF90BF90AF909F908F907F9082
:102620006F905F904F900F900FBE0F901F90189576
:10263000CF92DF92EF92FF92CF93DF936B017C01F9
:10264000EA0180919A03811102C00E94130F8091C8
:10265000960480FF46C08091E9039091EA030897B1
:102660000CF03FC0809171008D7F8093710080914C
:10267000AC0381110E942D0F81E08093AB03109277
:1026800099031092980320E030E0A901C701B60138
:102690000E9406311816DCF48091E9039091EA0358
:1026A000FC01EE0FFF1FEE0FFF1FEF53FC4FC08228
:1026B000D182E282F382FC01EE0FFF1FEF54FC4F48
:1026C000D183C08301969093EA038093E9038091BC
:1026D0007100826080937100809190008068809387
:1026E0009000DF91CF91FF90EF90DF90CF90089511
:1026F0008F929F92AF92BF92CF92DF92EF92FF9212
:102700000F931F93CF93DF93EC017B01D42E4801ED
:10271000590180919A03811102C00E94130F809188
:10272000960480FF6BC0809171008D7F8093710053
:102730008091AB0381110E942D0F81E08093AC0347
:10274000D0939504C0939404F0929304E092920481
:10275000D0929D048092970490929804A09299043C
:10276000B0929A041092AD031092AE031092AF0390
:102770001092B00310929F0388819981AA81BB8136
:102780008093A7039093A803A093A903B093AA03EF
:1027900020E030E040E85EE36C817D818E819F81A6
:1027A0000E940B316B017C0180917A02682F70E0EE
:1027B00080E090E00E94F22F20E030E048EC52E40C
:1027C0000E944A2F9B01AC01C701B6010E940B3148
:1027D0006093A3037093A4038093A5039093A6032F
:1027E0001092A2031092A1038091710082608093E5
:1027F000710080919000806880939000DF91CF916C
:102800001F910F91FF90EF90DF90CF90BF90AF900E
:102810009F908F9008958091960481700895809183
:1028200096048160809396040E94D9210C94560DE1
:10283000809196048E7F809396040C94D921809188
:10284000EB0390E0019666E070E00E940333809312
:10285000EB0308958091EB0390E0019766E070E050
:102860000E9403338093EB0308958F929F92AF925F
:10287000BF92CF92DF92EF92FF920F931F93CF936D
:10288000DF936B017C01C0919803D0919903BE0145
:1028900080E090E00E94F22F4B015C01A7019601BD
:1028A00060E070E08CE594E40E944A2F9B01AC014B
:1028B000C501B4010E940B310E94C32F2091EB038C
:1028C000233009F473C028F4222351F02130E9F0B9
:1028D0002CC1243009F4A0C0253009F4E0C025C182
:1028E00080E090E0A0E0BFE38093760290937702CF
:1028F000A0937802B093790210929B0310929C03EC
:1029000010929D0310929E0310C110929B0310928F
:102910009C0310929D0310929E036431710540F454
:102920006A30710560F520E030E040E85EE32BC0DE
:10293000693C710508F0AAC080E090E00E94F22F87
:1029400020E030E040EA51E40E94D82E20E030E060
:1029500044E353E40E944A2F9B01AC010E940B31D7
:1029600020E030E040E05EE30E940B319B01AC01CF
:1029700060E070E080E09EE30E94D82E44C020E03A
:1029800030E040E05FE3C701B6010E940B316B010C
:102990007C0180E090E0A0E0BEE38093760290931B
:1029A0007702A0937802B0937902BFC010929B0384
:1029B00010929C0310929D0310929E034AE0469F42
:1029C0009001479F300D1124C90168EB7BE00E9404
:1029D000EF32BC016C5D754077FF03C07195619566
:1029E0007109882777FD8095982F0E94F42F2EE398
:1029F00033EC4EE259E30E940B3120E030E040EC32
:102A00005EE30E94D92E60937602709377028093E2
:102A100078029093790289C010929B0310929C03D4
:102A200010929D0310929E03CE0183709927892BEB
:102A3000E1F0BE016170772780E090E00E94F22F04
:102A400020E030E040E05EE30E940B3120E030E027
:102A500040E45FE30E94D92E609376027093770280
:102A600080937802909379020CC080E090E0A0E01F
:102A7000BFE38093760290937702A0937802B0939D
:102A80007902C770DD27CD2B09F04FC01092760276
:102A900010927702109278021092790246C010923A
:102AA0009B0310929C0310929D0310929E0300E0E2
:102AB00010E020E03FE3009376021093770220932A
:102AC0007802309379026739710578F180E090E0FF
:102AD0000E94F22F20E030E047E153E40E94D82E1C
:102AE00020E030E04AE754E40E944A2F20E030E042
:102AF00048E452E40E940B3120E030E040EA51E427
:102B00000E943A300E94BC2F660F771F660F771F16
:102B1000FB01EE53FD4F2081318142815381C7017A
:102B2000B6010E940B316B017C01C701B601DF9138
:102B3000CF911F910F91FF90EF90DF90CF90BF90BA
:102B4000AF909F908F9008959093F1038093F0033E
:102B50000895E091F003F091F103309721F0019096
:102B6000F081E02D099480E00895E091F003F09168
:102B7000F103309721F00280F381E02D099408954C
:102B8000E091F003F091F103309721F00480F5819A
:102B9000E02D099408952091EE033091EF03821700
:102BA000930771F09093EF038093EE03E091F003AD
:102BB000F091F103309721F00680F781E02D099420
:102BC00008952091EC033091ED038217930771F083
:102BD0009093ED038093EC03E091F003F091F10307
:102BE000309721F00084F185E02D0994089508952F
:102BF0000C94F7150E945B220E94540C0E94E12263
:102C00000C944B274F925F927F928F929F92AF923C
:102C1000BF92CF92DF92EF92FF920F931F93CF93C9
:102C2000DF93CDB7DEB72A970FB6F894DEBF0FBE9D
:102C3000CDBF0E949E0C93EFC92E93E0D92E00E0E9
:102C400010E0AA24A394B12C702E802F0E94430D73
:102C50004C01F601419051906F01482659264114CC
:102C60005104B1F40F5F1F4F0430110569F78FEF66
:102C700089838A831B820E9464228160782F9D83CE
:102C80008C8349815A816B818D810E94BB163AC029
:102C900080916F0481FD0E944C0D20E030E07501B1
:102CA000022E02C0EE0CFF1C0A94E2F7C701842139
:102CB0009521892B09F12E837F828E209F2091E020
:102CC000892809F490E098870E9464228160782F17
:102CD0009A8789874E815F8168858A850E94BB16A5
:102CE000000F111FF801ED50FC4F80819181E82603
:102CF000F926F182E08206C02F5F3F4F2C3031056C
:102D000071F6B0CF0E9479241091F2030E94A915A8
:102D10001817D9F00E94A9158093F2032A960FB6CE
:102D2000F894DEBF0FBECDBFDF91CF911F910F9101
:102D3000FF90EF90DF90CF90BF90AF909F908F90DB
:102D40007F905F904F900C9447082A960FB6F894A6
:102D5000DEBF0FBECDBFDF91CF911F910F91FF90CE
:102D6000EF90DF90CF90BF90AF909F908F907F902B
:102D70005F904F900895CF93DF93CDB7DEB72B9739
:102D80000FB6F894DEBF0FBECDBF4F83588769875B
:102D90007A878B87DE01119686E0FD0111928A9574
:102DA000E9F785E0FE01379601900D928A95E1F7EB
:102DB00049815A816B817C818D819E810E94371D62
:102DC0002B960FB6F894DEBF0FBECDBFDF91CF912B
:102DD0000895CF93882309F4CDC0C82F823859F4C1
:102DE0000E94A91581FDC6C089E30E948B200E9424
:102DF000582189E30CC0833879F40E94A91580FD1D
:102E0000B9C083E50E948B200E94582183E50E946F
:102E1000CD20CF910C945821843859F40E94A915E3
:102E200082FDA8C087E40E948B200E94582187E47D
:102E3000EECF8CEF8C0F813A48F48C2F0E94B42691
:102E4000811198C08C2F0E948B20E3CF80E28C0FE1
:102E5000883048F4C77081E001C0880FCA95EAF74E
:102E60000E941121D6CF8BE58C0F833078F4C53AC0
:102E700029F0C63A31F083E890E005C081E890E09F
:102E800002C082E890E0CF910C94CB1588E58C0FBE
:102E9000853108F06FC0C83A61F1C93A69F1CA3AA0
:102EA00071F1CB3A79F1CC3A81F1CB3B89F1CC3B52
:102EB00091F1CD3A99F1C03BA1F1CE3AA9F1CF3AC7
:102EC000B1F1C13BB9F1C23BC1F1C33BC9F1C43B54
:102ED000D1F1C53BD9F1C63BE1F1C73BE9F1C83BB4
:102EE000F1F1C93BF9F1CA3B09F43FC080E090E041
:102EF0003EC082EE90E03BC089EE90E038C08AEEA2
:102F000090E035C085EB90E032C086EB90E02FC0BA
:102F100083EB90E02CC084EB90E029C087EB90E03D
:102F200026C08CEC90E023C08DEC90E020C083E8BC
:102F300091E01DC08AE891E01AC082E991E017C0D3
:102F400084E991E014C081E292E011C083E292E052
:102F50000EC084E292E00BC085E292E008C086E2F7
:102F600092E005C087E292E002C08AE292E0CF914F
:102F70000C94E115CF910895882309F44BC0823851
:102F800059F40E94A91581FF45C089E30E948B2056
:102F90000E94582189E30CC0833871F40E94A9155E
:102FA00080FF38C083E50E948B200E94582183E572
:102FB0000E94CD200C945821843859F40E94A91500
:102FC00082FF28C087E40E948B200E94582187E45A
:102FD000EFCF9CEF980F913A58F390E2980F98300A
:102FE00050F4877091E001C0990F8A95EAF7892F14
:102FF0000E941721DFCF9BE5980F933020F480E0EB
:1030000090E00C94CB15885A853120F480E090E054
:103010000C94E1150895882321F00E9411210C944D
:1030200058210895882321F00E9417210C945821DB
:1030300008957F928F929F92AF92BF92CF92DF922C
:10304000EF92FF920F931F93CF93DF931F92CDB711
:10305000DEB77C01C62E772EFC01058102950F702C
:10306000128111110E942E210E948420882379F060
:10307000112369F080E28C0D883048F082E00E94D4
:103080006D200E94842091E0D82ED92601C0D12C39
:10309000E72DE295EF70F0E0E258FF4F0C94173304
:1030A000872D807F072D0F70882311F00295007FF8
:1030B000112389F0002309F499C180E28C0D883036
:1030C00020F4802F0E94112103C0802F0E94212113
:1030D0000E9458218BC18C2D0E94BC17002309F43B
:1030E000C3C180E28C0D883020F4802F0E9417210C
:1030F00003C0802F0E9427210E945821B5C1872D2F
:10310000807F972D9F70803211F4892F03C0892F03
:103110008295807FCC2021F0F1E0CF16A1F01DC078
:10312000112339F0002319F1013009F50E944121E2
:103130009BC1002319F0013009F496C189830E94D4
:103140004421898110C1112321F0063008F08CC17F
:103150000EC0053008F088C106C1112359F00023C4
:1031600031F0F701958190FF41C19F7095830E94D6
:103170000B187AC1002309F4F6C03EC1872D86954D
:103180008695837090E0009719F0019761F06CC10B
:10319000112321F08C2D972D937002C080E090E0D8
:1031A0000E94CB1561C1112321F08C2D972D9370B6
:1031B00002C080E090E00E94E11556C18C2D1123E1
:1031C00019F00E94812302C00E94E9230E946E240C
:1031D0004BC1872D837009F052C0111145C18C2D50
:1031E000829586958770880F880F9C2D9F70892EF9
:1031F000912CA12CB12C082E04C0880C991CAA1C5F
:10320000BB1C0A94D2F7C4FE14C00FE010E020E00B
:1032100030E0B901A80104C0440F551F661F771F95
:103220008A95D2F7CB01BA016095709580959095FB
:1032300003C060E070E0CB01272D26952695237012
:1032400030E02230310569F02330310589F06829FA
:1032500079298A299B292130310571F00E947F1E2E
:1032600003C1682979298A299B290E949B1EFCC0D9
:103270000E947F1EC501B4010E94631EF5C0112388
:1032800019F0872D817001C08695882309F4ECC060
:103290008C2D829586958770880F880F9C2D9F7046
:1032A000892E912CA12CB12C082E04C0880C991CBD
:1032B000AA1CBB1C0A94D2F7C4FE14C00FE010E095
:1032C00020E030E0B901A80104C0440F551F661F7B
:1032D000771F8A95D2F7CB01BA01609570958095DA
:1032E000909503C060E070E0CB01272D26952695D0
:1032F0002370422F50E04230510569F043305105B0
:1033000089F0682979298A299B294130510571F072
:103310000E94591FA9C0682979298A299B290E94DE
:10332000751FA2C00E94591FC501B4010E943D1F14
:103330009BC08C2D90E0FC01E05EF109E531F105C8
:1033400008F050C0E257FF4F0C9417330C2D0F704C
:10335000872D8F71112321F00E94D61E802F07CF59
:103360000E94F71E802F0E9412187EC0112341F088
:10337000053008F079C0872D8F710E941C1F74C022
:10338000063008F071C0F7CF112339F0872D8F7107
:103390000E94D61E69C01123C9F3872D8F710E9428
:1033A000F71E62C0112329F0872D8F710E94C11E64
:1033B0005BC00E94B71E58C0112351F0172D1F711A
:1033C000812F0E94D61E63E0812F0E9464204CC092
:1033D00081E00E946D20023008F446C082E00E9425
:1033E0006D2042C0112331F0002381F28C2D0E9408
:1033F000E9163AC0002389F28C2D0E94BC1734C014
:10340000472D4F706C2DC7010E948D060E94DB1D59
:103410002BC0111129C0472D4F7050E0423051058B
:10342000B9F04CF44115510581F041305105E1F4FA
:103430000E94732719C04330510569F0443051058B
:1034400099F48C2D0E94C5270FC00E945C270CC0E8
:103450000E948F2709C00E94A22706C0472D4F70E7
:103460006C2DC7010E94500BDD20F9F00E946020F6
:1034700080FD1BC0F70112820E945A200E94D61EB6
:10348000C7010E94641A0E945A200F90DF91CF91C9
:103490001F910F91FF90EF90DF90CF90BF90AF9072
:1034A0009F908F907F900C94F71E0F90DF91CF919B
:1034B0001F910F91FF90EF90DF90CF90BF90AF9052
:1034C0009F908F907F9008950F931F93CF93DF93DA
:1034D000EC01888199812B813C81232BB9F09F3F9E
:1034E00011F48F3F99F0CE010E945A08882371F0A1
:1034F000688179818A810E9437208C010E94911F06
:103500000E94581EB801CE010E941918DF91CF9178
:103510001F910F9108950E942E210E943E210E942A
:1035200003210E9458210E941F250E946E2480E0E2
:1035300090E00E94CB1580E090E00C94E1150E9491
:103540001E210C948B1A0E942C20E92FE295EF701B
:10355000F0E03297EE30F105B0F4ED55FF4F0C94EA
:103560001733803F91F018F4803E68F40EC0843F1A
:1035700051F40BC0803E48F0813F29F406C093FB14
:10358000882780F9089580E0089581E00895CF9319
:10359000DF9300D000D01F92CDB7DEB70F900F9011
:1035A0000F900F900F90DF91CF910895CF93DF93FD
:1035B00000D000D000D0CDB7DEB726960FB6F89475
:1035C000DEBF0FBECDBFDF91CF9108951F93CF9384
:1035D000DF93C091FC0316E08091FD03C81799F0BA
:1035E000D0E01C9FF0011D9FF00D1124E250FC4F14
:1035F0004081518162817381848195810E94D61AB4
:103600002196C770E9CFDF91CF911F910895409126
:103610002E0450912F0460913004709131048091F8
:103620003204909133040C94D61A8091330482951D
:103630008F7009F054C080913004882309F44FC082
:103640008091FC03A091FD0360912E0470912F04E2
:103650004091310450913204B6E08A1709F43FC01A
:1036600090E041155105C1F17F3F11F46F3FA1F189
:10367000B89FF001B99FF00D1124E250FC4F218159
:1036800072132AC02081621327C02281211124C015
:10369000238134812417350710F421503109241B6C
:1036A000350B283C3105C0F4209133042F70206184
:1036B0002093330426E0289FF001299FF00D112468
:1036C000ED5FFB4F80818F70806180838EE294E09C
:1036D0000E94641A0C94E61A01968770BECF089572
:1036E000CF92DF92EF92FF920F931F93CF93DF93CE
:1036F000CDB7DEB762970FB6F894DEBF0FBECDBF71
:103700008C0185E0F801DE011D9601900D928A95ED
:10371000E1F7D8014C9111965C91119712966C913A
:1037200012971396CD90DC90149730912E047091DF
:103730002F048091310490913204009709F46BC1F9
:103740007F3F19F43F3F09F466C1E0903004EE205A
:1037500009F4C0C020913304C816D90628F0F60138
:10376000E81BF90BCF0104C0809590958C0D9D1D31
:10377000FF24F394883C910578F0F12C207F09F028
:10378000C6C07C2DD98AC88A89890E94C71A8EE250
:1037900094E00E94641AB1C0822F807F09F046C075
:1037A000751314C0341312C0611110C02F70206142
:1037B000209333040E94071B8EE294E00E94641A57
:1037C00080913304D80115968C932EC0CD2819F121
:1037D0005F3F11F44F3FF9F0F62E61111CC080914C
:1037E000FC032091FD0336E0821709F45AC090E0F3
:1037F000389FF001399FF00D1124E250FC4F718188
:10380000571306C07081471303C07281711103C042
:1038100001968770E9CFF62E662309F418C18091CE
:103820003304816080933304F12C11C1751308C0F7
:10383000341306C0611104C080913304D801C3C0A1
:103840004D875E878D859E856A8B0E94A31A6A8943
:103850008823E1F16623D1F120913304822F8295F0
:103860008F7090E0029774F080912E0490912F0455
:1038700098878F831986DB86CA862C87CE010796A8
:103880000E94641A86E0F801AEE2B4E001900D9265
:103890008A95E1F70E94151B0E94071BFF24F394F1
:1038A000D6C04D875E878D859E850E942C20292F4E
:1038B00022952F7030E0223031050CF0BCC09F7093
:1038C00009F0B6C0805E883008F4C1C0C8010E940B
:1038D000641AE4CFC816D90608F453C0F601E81BF1
:1038E000F90BCF01883C910508F450C0F12C7C2DD8
:1038F000D98AC88A89890E94C71AEEE2F4E086E074
:10390000DF011D928A95E9F70E94071BA0C075137D
:1039100014C0341312C0611110C080913304F80137
:103920008583C8010E94641A86E0EEE2F4E0DF01BC
:103930001D928A95E9F7FE2C8AC04D875E878D859A
:103940009E856A8B0E94A31A6A89882309F4BECFD8
:10395000662309F4BBCF20913304822F82958F70A8
:1039600090E002970CF48ECF80912E0490912F045A
:103970009A8389831B82DD82CC822E83CE010196BD
:103980007FCF809590958C0D9D1DACCFF62E662334
:1039900009F49CCF75132EC034132CC0209133042E
:1039A00020FD1FC0822F82958F70D9F0D801159607
:1039B0002C9315978F3049F08F5F982F9295907FB9
:1039C000822F8F70892B15968C93C8010E94641AE0
:1039D00086E0F801AEE2B4E001900D928A95E1F73D
:1039E00093CF86E0F801AEE2B4E001900D928A95A3
:1039F000E1F72DC04D875E878D859E850E94A31AB5
:103A0000811140CF80913304816080933304C801D9
:103A10000E94641A1CC0662309F458CF4D875E8744
:103A20008D859E850E94A31A882309F44FCF2ACF43
:103A3000811148CF0CC0243031050CF047CF9F7066
:103A400009F440CFF8019581907F09F03BCF8F2D8D
:103A500062960FB6F894DEBF0FBECDBFDF91CF9157
:103A60001F910F91FF90EF90DF90CF9008951F93DB
:103A7000CF93DF93CDB7DEB72C970FB6F894DEBFA8
:103A80000FBECDBF4F83588769877A878B879C8706
:103A9000CE0107960E94701B882369F08F8198855C
:103AA0002A853B85232BF1F19F3F09F063C08F3FAF
:103AB00009F060C037C086E0FE013796DE0111963E
:103AC00001900D928A95E1F76F817885EA85FB85F3
:103AD000309741F17F3F11F46F3F21F12091FD03B9
:103AE00030E0C9010196877099274091FC0350E0AE
:103AF0008417950709F447C069837A83FD83EC83B3
:103B000096E0929FD001939FB00D1124A250BC4F1C
:103B1000FE01319601900D929A95E1F78093FD0395
:103B20000E94E61A16E08091FC039091FD0389172C
:103B3000C1F1189FC001112482509C4F0E94701B3C
:103B4000882379F1E091FC031E9FF0011124E250DB
:103B5000FC4F4081518162817381848195810E94F3
:103B6000D61A8091FC0390E0019687709927809384
:103B7000FC03D9CF4F81588569857A858B859C85D3
:103B80000E94D61ACFCF0E949F1A1092FD03109266
:103B9000FC03EEE2F4E086E0DF011D928A95E9F78E
:103BA000C1CF2C960FB6F894DEBF0FBECDBFDF910C
:103BB000CF911F910895EF92FF920F931F93CF9390
:103BC000DF938C01892B09F46CC0F12CEE24E39473
:103BD000E8012196F8018491843740F4843008F09C
:103BE00051C0813081F0823019F15BC0853709F412
:103BF00044C0A8F19CE7980F903708F052C08F7727
:103C00000E94BC1741C00E5F1F4FFE01C49180E2AD
:103C10008C0F883048F4C7708E2D01C0880FCA956C
:103C2000EAF70E94312114C08C2F0E94E9162DC0A2
:103C30000E5F1F4FFE01C49180E28C0F883058F454
:103C4000C7708E2D01C0880FCA95EAF70E943721F0
:103C50000E9458211AC08C2F0E94BC1716C00E5FFC
:103C60001F4FFE01C491CC2381F08FE99FE00197A3
:103C7000F1F700C00000C150F6CF0E5F1F4FFE01EC
:103C8000F49003C00E94E9168E018F2D882309F459
:103C90009FCFEFE9FFE03197F1F700C000008150BE
:103CA000F5CFDF91CF911F910F91FF90EF90089585
:103CB000089560935604709357048093580490932A
:103CC00059040C948B1A0F931F9300915604109172
:103CD00057042091580430915904DC01CB01802B0A
:103CE000912BA22BB32B8093560490935704A0934F
:103CF0005804B09359041F910F910C948B1A0F9391
:103D00001F9300915604109157042091580430914C
:103D10005904DC01CB0180239123A223B323809398
:103D2000560490935704A0935804B09359041F91DC
:103D30000F910C948B1A0F931F93009156041091BE
:103D400057042091580430915904DC01CB0180279D
:103D50009127A227B3278093560490935704A093EA
:103D60005804B09359041F910F910C948B1A109220
:103D700052041092530410925404109255040C945F
:103D80008B1A41E050E060E070E004C0440F551F22
:103D9000661F771F8A95D2F74093520450935304BD
:103DA00060935404709355040C948B1A41E050E0D6
:103DB00060E070E004C0440F551F661F771F8A95AE
:103DC000D2F78091520490915304A0915404B09181
:103DD0005504482B592B6A2B7B2B4093520450934C
:103DE000530460935404709355040C948B1A41E06F
:103DF00050E060E070E004C0440F551F661F771F5D
:103E00008A95D2F7409550956095709580915204AF
:103E100090915304A0915404B09155044823592320
:103E20006A237B23409352045093530460935404B9
:103E3000709355040C948B1A41E050E060E070E000
:103E400004C0440F551F661F771F8A95D2F78091D3
:103E5000520490915304A0915404B0915504482702
:103E600059276A277B274093520450935304609349
:103E70005404709355040C948B1A0F931F93009164
:103E80005204109153042091540430915504DC01E4
:103E9000CB01802B912BA22BB32B809352049093B8
:103EA0005304A0935404B09355041F910F910C94A4
:103EB0008B1A0F931F930091520410915304209179
:103EC000540430915504DC01CB0180239123A223BB
:103ED000B3238093520490935304A0935404B0935B
:103EE00055041F910F910C948B1A0F931F930091FF
:103EF0005204109153042091540430915504DC0174
:103F0000CB0180279127A227B32780935204909357
:103F10005304A0935404B09355041F910F910C9433
:103F20008B1A08952CE0929F800D1124A82FA6953E
:103F3000A695A695877051E001C0550F8A95EAF7BE
:103F400085E0A89FD001112420E030E070E0F90165
:103F5000EA0FFB1FEC5CFB4F4081CB01022E02C03D
:103F6000969587950A94E2F7817099278195842721
:103F70008523842780832F5F3F4F2530310539F714
:103F800008952CE0929F800D1124682F6695669508
:103F90006695982F977085E0689FB001112440E0E6
:103FA00050E080E0FA01E60FF71FEC5CFB4F208148
:103FB00030E0092E02C0369527950A94E2F7217069
:103FC0003327042E01C0220F0A94EAF7822B4F5F99
:103FD0005F4F4530510531F70895CF92DF92EF9250
:103FE000FF920F931F93CF93DF938C01C0905604E1
:103FF000D0905704E0905804F090590480915204F6
:1040000090915304A0915404B0915504C82AD92A20
:10401000EA2AFB2ACFE1D0E0D701C6010C2E04C06A
:10402000B695A795979587950A94D2F780FF06C015
:10403000B8018C2F0E94A109019721F4219760F704
:1040400080E001C08C2FDF91CF911F910F91FF90E5
:10405000EF90DF90CF900895CF93DF93EC010E9413
:10406000ED1FBE010E94A109DF91CF9108951F931A
:10407000CF93DF93EB019091FB03992321F0CB01C8
:104080000E942C2013C0882349F0CB010E94ED1F11
:10409000182F682FCE010E94921F04C0CB010E94EE
:1040A000C11F182FBE01812F0E94A109DF91CF915E
:1040B0001F91089580915A04859585958595089559
:1040C00080915A048770089598E0899F9001112487
:1040D000262B20935A040C94D61E20915A048095C6
:1040E000822380935A04982F977069F430E0482F08
:1040F000552747FD50952417350729F08595859557
:1041000085950C94F71E089590915A04977081E05C
:1041100009F480E0089590918E02992321F0909106
:104120007B02911109C020917C0230917D02F9013E
:1041300032969FEF40E01FC0982F969596959695E2
:104140009F3050F5E0917C02F0917D02E90FF11D66
:10415000877021E030E0A90102C0440F551F8A9505
:10416000E2F7CA019181892B818308959F3F39F03D
:104170004F5F4E3041F051915813F8CF0DC051119F
:10418000F7CF942FF5CF9F3F39F0F901E90FF11DDB
:1041900097FDFA9582830895089590918E02992350
:1041A00021F090917B02911109C020917C02309105
:1041B0007D02F9013296205F3F4F1FC0982F9695E0
:1041C000969596959F30F0F4E0917C02F0917D02F7
:1041D000E90FF11D877021E030E0A90102C0440F12
:1041E000551F8A95E2F7CA018095918189238183C1
:1041F00008953196E217F30729F090819813F9CFCB
:104200001082F7CF089581E090E0E0917C02F09178
:104210007D02E80FF91F1082019680319105A9F700
:10422000089590916E04892B80936E040895809573
:1042300090916E04892380936E04089510926E0409
:10424000089590916D04892B80936D040895809555
:1042500090916D04892380936D04089510926D04EC
:10426000089590916C04892B80936C040895809537
:1042700090916C04892380936C04089510926C04CF
:10428000089580935B04089510925B0408958091D3
:104290007C0290917D02FC0131969C01205F3F4F92
:1042A00080E0919191118F5FE217F307D1F70895A4
:1042B000E0917C02F0917D0280916E048083E09118
:1042C0007C02F0917D02908180916D04892B808326
:1042D000E0917C02F0917D02908180916C04892BA9
:1042E000808380915B04882361F0E0917C02F091EF
:1042F0007D029081892B80830E9447218111109239
:104300005B0480917C0290917D020C94B5156DEE5A
:104310007EEF80E090E00E943C3360E082E090E03D
:104320000E942B3360E083E090E00E942B3360E03A
:1043300084E090E00E942B3360E085E090E00E94F2
:104340002B3360E086E090E00E942B336FEF87E034
:1043500090E00C942B3380E090E00E94253321E024
:104360008D3E9E4F09F020E0822F089582E090E07C
:104370000C941D3383E090E00C941D33682F83E090
:1043800090E00C942B3384E090E00C941D33682F64
:1043900084E090E00C942B3386E090E00C941D3385
:1043A000682F86E090E00C942B3387E090E00C942B
:1043B0001D33682F87E090E00C942B338091A50487
:1043C000843051F11092700420E488E190E00FB63F
:1043D000F894A895809360000FBE2093600080E061
:1043E0000E941A0880E00E94470883B7817F84609A
:1043F00083BF83B7816083BF7894889583B78E7FAE
:1044000083BF0FB6F894A89580916000886180936F
:104410006000109260000FBE089508950895CF9334
:1044200080E00E941A080E940D220E949E0C0E94A9
:104430000E22C0E08C2F0E94430D892B29F4CF5F00
:10444000C430C1F780E001C081E0CF9108950E949F
:104450009F1A80E00E941A080E944B270E94A9150B
:104460000C9447081F920F920FB60F9211248F934E
:104470009F93AF93BF9380917004811113C080917B
:10448000710490917204A0917304B09174044196E8
:10449000A11DB11D8093710490937204A0937304C5
:1044A000B0937404BF91AF919F918F910F900FBE05
:1044B0000F901F90189582E084BD93E095BD9AEF10
:1044C00097BD80936E0008952FB7F8948091710482
:1044D00090917204A0917304B09174042FBF089559
:1044E000CF92DF92EF92FF920F931F932FB7F89422
:1044F000409171045091720460917304709174043E
:104500002FBF6A017B01EE24FF248C0120E030E004
:10451000C016D106E206F30610F4415051099A0183
:10452000281B390BC9011F910F91FF90EF90DF906D
:10453000CF9008951F920F920FB60F9211248F9370
:104540009F93AF93BF938091710490917204A09157
:104550007304B09174040196A11DB11D8093710480
:1045600090937204A0937304B0937404BF91AF91BD
:104570009F918F910F900FBE0F901F9018950E94E2
:10458000DA2BF8942FEF87EA91E621508040904093
:10459000E1F700C0000087E090EBDC018093AE04FF
:1045A0009093AF04A093B004B093B1049CE088E171
:1045B0000FB6F894A895809360000FBE90936000AA
:1045C000FFCF0E94AB21811102C00E9487210E946F
:1045D000B62180936F040E94C32190E090939F04C2
:1045E00080939E0487FB882780F980937B020E943A
:1045F000BA21682F70E080E090E00C94591E809101
:10460000770480FF0BC06091810285E0689FB00154
:10461000112475956795759567952BC081FF09C025
:104620006091810285E0689FB001112475956795BE
:1046300020C082FF07C06091810285E0689FB001C1
:10464000112417C0909178049923D1F060918002D1
:10465000961788F72091810285E0289F9001112408
:10466000929FA001939F500D112470E0CA010E94F7
:1046700003336038710540F46115710539F002C0EB
:1046800065E070E0862F08958FE7089581E0089532
:104690008091770480FF08C060917F0270E075957B
:1046A00067957595679521C081FF06C060917F026F
:1046B00070E07595679519C082FF04C060917F0214
:1046C00070E010C0909178049923C1F060917E024F
:1046D0009617A0F780917F02899FC001112470E096
:1046E0000E9403336038710528F46115710521F0CB
:1046F000862F08958FE7089581E0089561E070E0C6
:10470000F4CF803F21F40E94FF22819504C0813FB5
:1047100029F40E94FF2280937B040895823F21F4B4
:104720000E94FF22819504C0833F29F40E94FF224A
:1047300080937A040895893F19F40E94482305C0A4
:104740008A3F31F40E944823819580937C04089528
:104750008B3F21F40E944823819504C08C3F29F4AB
:104760000E94482380937D040895843F21F4809122
:104770007904816017C0853F21F4809179048260BB
:1047800011C0863F21F48091790484600BC0873F7B
:1047900021F480917904886005C0883F31F48091CC
:1047A000790480618093790408958D3F21F480918C
:1047B000770481600BC08E3F21F480917704826082
:1047C00005C08F3F29F4809177048460809377043B
:1047D0000895803F39F480917B0487FF6CC010926C
:1047E0007B0469C0813F29F480917B041816BCF3D7
:1047F00062C090917A04823F29F497FF5CC01092C6
:104800007A0459C0833F19F41916CCF354C0893F78
:1048100041F480917C0418160CF04DC010927C0479
:104820004AC08A3F29F480917C0487FF44C0F6CFB8
:104830008B3F39F480917D0487FF3DC010927D0449
:104840003AC08C3F29F480917D041816BCF333C024
:10485000843F21F4809179048E7F17C0853F21F435
:10486000809179048D7F11C0863F21F48091790475
:104870008B7F0BC0873F21F480917904877F05C02F
:10488000883F31F4809179048F7E8093790413C03E
:104890008D3F21F4809177048E7F0BC08E3F21F4F1
:1048A000809177048D7F05C08F3F29F48091770434
:1048B0008B7F8093770480917A0481110EC0809160
:1048C0007B0481110AC080917C04811106C0809113
:1048D0007D04811102C010927804089589E794E064
:1048E0000E94C0150E946422909376048093750400
:1048F00008951F93CF93DF93809175049091760470
:104900000E947022AC0190917804992321F02091AB
:10491000820230E006C0209183028AE0289F900145
:1049200011244217530708F486C080917A04C0917D
:104930007B04D0917C0410917D04811107C0C111CA
:1049400076C0D11174C0111172C075C09F3F19F0AB
:104950009F5F90937804181624F40E94FF2280939E
:104960007A0480917A0487FF05C00E94FF22819516
:1049700080937A041C1624F40E94FF2280937B0407
:1049800080917B0487FF05C00E94FF228195809360
:104990007B0460917A04662339F1C0917B04CC23B7
:1049A00019F1772767FD7095872F972F0E94F42FB5
:1049B00023E333E343E35FE30E940B310E94BC2F08
:1049C00060937A046C2F772767FD7095872F972F58
:1049D0000E94F42F23E333E343E35FE30E940B31B0
:1049E0000E94BC2F60937B041D1624F40E94482370
:1049F00080937C0480917C0487FF05C00E9448233B
:104A0000819580937C04111624F40E94482380939E
:104A10007D0480917D0487FF05C00E944823819515
:104A200080937D04DF91CF911F910C946E249F3F62
:104A300009F08ECF96CFDF91CF911F910895E9E7CE
:104A4000F4E085E0DF011D928A95E9F71092780481
:104A5000109277040895833081F128F4813059F061
:104A60008230D1F00895853009F449C0B8F186301C
:104A700009F456C0089580918302262F30E0280F54
:104A8000311D2F3F310524F4680F60938302089590
:104A90008FEF80938302089580918202262F30E069
:104AA000280F311D2F3F310524F4680F60938202D7
:104AB00008958FEF80938202089580918102262FBE
:104AC00030E0280F311D2F3F310524F4680F60932B
:104AD000810208958FEF8093810208958091800272
:104AE000262F30E0280F311D2F3F310524F4680FA9
:104AF0006093800208958FEF8093800208958091E3
:104B00007F02262F30E0280F311D2F3F310524F47E
:104B1000680F60937F0208958FEF80937F0208955E
:104B200080917E02262F30E0280F311D2F3F310566
:104B300024F4680F60937E0208958FEF80937E02C5
:104B40000895833011F128F4813049F0823091F0DA
:104B50000895853081F120F18630C1F1089580916A
:104B60008302681720F4861B8093830208951092B5
:104B70008302089580918202681720F4861B809337
:104B8000820208951092820208958091810268172E
:104B900020F4861B8093810208951092810208956B
:104BA00080918002681720F4861B8093800208950C
:104BB00010928002089580917F02681720F4861B6E
:104BC00080937F02089510927F02089580917E0263
:104BD000681720F4861B80937E02089510927E024F
:104BE00008950F931F93873208F048C08E3108F064
:104BF0008DC0803109F477C008F5873009F461C0B1
:104C000068F4863009F09DC080916F04817F8E7FAB
:104C100080936F0481E080937F0494C08B3009F40B
:104C200089C08E3009F08DC080916F0482FB2227ED
:104C300020F991E0922790FB82F95EC0863109F459
:104C400079C060F4813109F07CC00E949F1A909174
:104C50007B0281E0892780937B026CC0893109F453
:104C600069C08B3109F06DC080916F0481FB2227F0
:104C700020F991E0922790FB81F93EC0883309F436
:104C800059C050F4893209F457C0853309F454C02F
:104C9000873209F451C055C0833409F44DC028F45B
:104CA0008A3308F44EC0895332C0883409F049C0B1
:104CB0000E949F1A0E942D0F0E9494070E94BF22FB
:104CC00039C090916F04892F8095817080FB90F995
:104CD00029F09660986090936F0434C0997F977F15
:104CE00090936F0427C080916F0483FB222720F9E3
:104CF00091E0922790FB83F980936F049923D1F080
:104D000080916F04816080936F0414C08D5141E0E5
:104D100050E060E070E08A019B0104C0000F111FA9
:104D2000221F331F8A95D2F7C901B8010E94591E6C
:104D30000E949F1A81E006C061E070E080E090E090
:104D4000F5CF80E01F910F91089580E0089580E0F5
:104D500008958E518A3030F4E82FF0E0EE5EFC4F7B
:104D60008081089580E00895CF93C82F80917F04BB
:104D7000813069F018F08230C9F183C0E0917C0283
:104D8000F0917D028081823209F07DC007C0E09100
:104D90007C02F0917D028081823261F48C2F0E942E
:104DA000A526811104C08C2F0E94F1251DC081E031
:104DB00090E01AC08C2F0E94A726811114C0C43124
:104DC00079F048F4CB3079F0C03109F060C082E06E
:104DD00080937F0408C0C93219F0C83321F057C04E
:104DE00010927F0454C081E0817053C0C93289F1B0
:104DF00018F5C43171F1B0F4C73009F046C08EE146
:104E00008093830282E3809382028AE0809381020E
:104E100084E18093800288E080937F0288E280931F
:104E20007E0233C082EE8C0F863078F58C2F0E9484
:104E3000A92680937E0429C0CE34E9F020F4CB3437
:104E400021F56AE013C0C13579F0C235F1F461E0B3
:104E50000DC080917E04882319F010927E0415C045
:104E600081E080937F0415C061E006C080917E04DC
:104E70000E942B250AC06AE080917E040E94A12531
:104E800004C010927F0480E004C081E002C080E092
:104E9000ABCFCF9108950E94AB21811102C00E9437
:104EA00087210E94CC218093A00480FF02C08695B8
:104EB00001C080E00C941A088091A004982F969568
:104EC000292F30E0233031054CF49F5F990F81701A
:104ED000892B81608093A0040E94D0218091A0043E
:104EE00086950C941A088091A004982F969591F0BD
:104EF0009158990F8170892B8093A0048E7F91E047
:104F000009F490E08091A00490FB80F98093A004C4
:104F10000E94D0218091A00486950C941A0880915B
:104F2000A004982F909590FB80F98093A0040E9494
:104F3000D0218091A00480FF02C0869501C080E04E
:104F40000C941A089091A004892F86958F5F8F7713
:104F50009170843028F4880F892B8093A00402C0BC
:104F60009093A0048091A0048E7F91E009F490E0DA
:104F70008091A00490FB80F98093A0040E94D0212E
:104F80008091A00486950C941A082091A004922F79
:104F900096958927982F990F822F8170892B80935E
:104FA000A0048E7F91E009F490E08091A00490FB32
:104FB00080F98093A0040E94D0218091A00486955E
:104FC0000C941A08809190040895CF93DF9300D039
:104FD0001F92CDB7DEB79C018091A504843019F5EE
:104FE00093E099833B832A839093E9008FEF90911C
:104FF000E800815095FD06C095ED9A95F1F7000007
:105000008111F5CF8091E80085FF0DC040E050E0B0
:1050100063E070E0CE0101960E94452A8091E8008D
:105020008E778093E8000F900F900F90DF91CF91D3
:105030000895CF93DF9300D01F92CDB7DEB72091B4
:10504000A504243021F522E029839B838A8383E011
:105050008093E9008FEF9091E800815095FD06C0A4
:1050600095ED9A95F1F700008111F5CF8091E80058
:1050700085FF0DC040E050E063E070E0CE01019696
:105080000E94452A8091E8008E778093E8000F9077
:105090000F900F90DF91CF9108952091A5042430B7
:1050A000F1F422E02093E9002FEF3091E800215045
:1050B00035FD06C035ED3A95F1F700002111F5CF29
:1050C0002091E80025FF0BC040E050E065E070E073
:1050D0000E94452A8091E8008E778093E800089529
:1050E000CF93DF93EC019091A504943009F046C072
:1050F00080918E028823D9F080917B028823B9F0B9
:105100009093E9008FEF9091E800815095FD06C0E3
:1051100095E19A95F1F700008111F5CF8091E800B3
:1051200085FF2CC040E050E060E170E017C081E0F6
:105130008093E9008FEF9091E800815095FD06C0C3
:1051400095ED9A95F1F700008111F5CF8091E80077
:1051500085FF14C040E050E068E070E0CE010E949E
:10516000452A8091E8008E778093E80080E1FE0177
:10517000A0E8B4E001900D928A95E1F7DF91CF911C
:1051800008958091A404811109C00E94DA2B0E9425
:10519000372C8091E20084608093E20008951092A1
:1051A000A4040895089508950C94272242E061EC28
:1051B00081E00E94542B42E061EC82E00E94542B7B
:1051C00042E061EC83E00E94542B42E161EC84E018
:1051D0000C94542B8091A704833009F455C030F40B
:1051E000813071F0823009F48EC008958A3009F45C
:1051F0007AC08B3009F460C0893009F09CC020C0AF
:105200008091A604813A09F096C08091E800877FDA
:105210008093E8008091AA049091AB04892B21F43B
:1052200060E180E894E003C060E080E090E070E03E
:105230000E94902A8091E8008B778093E80008957F
:105240008091A604813209F076C08091AA049091E1
:10525000AB04009719F0039709F06DC08091E80046
:10526000877F8093E8008091E80082FD05C08091EF
:10527000A5048111F8CF5FC08091F1008093900464
:105280008091E8008B7753C08091A604813A09F0A1
:1052900052C08091AA049091AB04892B09F04BC0B5
:1052A0008091E800877F8093E8008091E80080FF8C
:1052B000FCCF80918E0236C08091A6048132D9F550
:1052C0008091AA049091AB04892BA9F58091E80004
:1052D000877F8093E8000E94892B8091A8048093A7
:1052E0008E020C949F1A8091A604813221F5809140
:1052F000E800877F8093E8000E94892B8091A904B1
:105300008093910408958091A604813AA1F480913C
:10531000E800877F8093E8008091E80080FFFCCF61
:10532000809191048093F1008091E8008E778093C2
:10533000E8000C94892B089584B7877F84BF0FB64B
:10534000F894A89580916000886180936000109225
:1053500060000FBE80E880936100109261000E949F
:10536000F8150E94DA2B0E94372C8091E2008460AD
:105370008093E20078940E94BD2E0E94FA1584E882
:1053800092E00E94A4158091A504853069F40E94E2
:10539000DE218091A3048823B1F30E940F22882389
:1053A00091F30E942F2AEFCF0E940216ECCF292FF3
:1053B000332723303105C9F064F42130310581F001
:1053C0002230310509F043C08DE690E022E939E052
:1053D00042C021323105F1F02232310541F137C0AE
:1053E00082E190E02FEF39E036C0992781309105B6
:1053F00041F08230910541F0892B49F5EEE8F9E062
:1054000005C0E0E6F9E002C0E6E3F9E0849190E04F
:105410009F0121C06430D8F4E62FF0E0EE0FFF1FAB
:10542000E85DFC4F2081318189E090E014C0643058
:1054300070F470E0FB01EE0FFF1FE05EFC4F208177
:105440003181FB01E45EFC4F808190E004C080E08C
:1054500090E020E030E0FA0131832083089580E17C
:1054600089BD82E189BD09B400FEFDCF8091D800DD
:105470008F7D8093D8008091E00082608093E0006F
:105480008091E00081FDFCCF0895CF92DF92EF92F2
:10549000FF920F931F93CF93DF93EC018B016A016F
:1054A0000E94A82B811133C0C114D10439F0F60138
:1054B00080819181081B190BC80FD91FE12CF12C99
:1054C0000115110519F18091E80085FD16C0809144
:1054D000E8008E778093E800C114D10449F0F6010A
:1054E00080819181E80EF91EF182E08285E00FC093
:1054F0000E94A82B882321F30AC089918093F10090
:1055000001501109FFEFEF1AFF0ADACF80E0DF91B7
:10551000CF911F910F91FF90EF90DF90CF90089562
:105520002091AC043091AD042617370748F061157F
:10553000710539F42091E8002E772093E80001C02E
:10554000B90140E061157105A9F12091A50422235C
:1055500009F443C0253009F442C02091E80023FD3E
:1055600040C02091E80022FD32C02091E80020FFD9
:10557000E9CF4091F3002091F20030E0342BFC01A0
:10558000CF016115710559F02830310540F4819142
:105590008093F100615071092F5F3F4FF1CF41E0DF
:1055A0002830310509F040E02091E8002E77209363
:1055B000E800C8CF4111C9CF0AC08091A504882353
:1055C00061F0853061F08091E80083FD0AC0809130
:1055D000E80082FFF2CF80E0089582E0089583E042
:1055E000089581E008952091AC043091AD04261710
:1055F000370748F06115710539F42091E8002E77DE
:105600002093E80001C0B901FC0120E0611571059B
:1056100091F18091A504882309F440C0853009F4F4
:105620003FC08091E80083FD3DC08091E80082FD8D
:105630002FC08091E80080FFE9CF2091F300809196
:10564000F20090E0922B6115710559F088309105B8
:1056500040F424912093F100319661507109019634
:10566000F2CF21E0089709F020E08091E8008E77E2
:105670008093E800CBCF2111CCCF0AC08091A50444
:10568000882361F0853061F08091E80083FD0AC0D5
:105690008091E80082FFF2CF80E0089582E00895D3
:1056A00083E0089581E00895982F973058F59093FE
:1056B000E900981739F07091EC002091ED005091BD
:1056C000F00003C0242F762F50E021FF19C0309145
:1056D000EB003E7F3093EB003091ED003D7F309347
:1056E000ED003091EB0031603093EB007093EC00F3
:1056F0002093ED005093F0002091EE0027FF07C0AB
:105700009F5FD3CF8F708093E90081E0089580E0A0
:1057100008958091A60487FF11C08091E80082FD62
:1057200005C08091A5048111F8CF11C08091E800D7
:105730008B770BC08091A504882349F08091E80005
:1057400080FFF8CF8091E8008E778093E80008957D
:105750002091E4003091E50095E64091EC00842F23
:10576000817040FF22C08091E80080FD1CC08091C4
:10577000A504882391F0853091F08091EB0085FDA0
:1057800010C04091E4005091E5004217530729F3FF
:105790009A01915011F784E0089582E0089583E022
:1057A000089581E0089580E008954091E80042FF67
:1057B000DECF08950E94482C0E94502CE0EEF0E0CD
:1057C000808181608083E8EDF0E080818F77808345
:1057D00019BCA7EDB0E08C918E7F8C9380818F7E79
:1057E00080831092A40408950F931F93CF93DF93A7
:1057F0000E94482C0E94502CC8EDD0E088818F7701
:10580000888388818068888388818F7D888319BC9C
:105810001092A5041092A1041092A3041092A20465
:1058200000EE10E0F80180818B7F808388818160A9
:10583000888342E060E080E00E94542BE1EEF0E0DB
:1058400080818E7F8083E2EEF0E0808181608083C2
:10585000808188608083F80180818E7F8083888149
:1058600080618883DF91CF911F910F910895E8EDBA
:10587000F0E080818F7E8083E7EDF0E080818160C1
:10588000808384E082BF81E08093A4040C94F42B95
:10589000E8EDF0E080818E7F80831092E200089531
:1058A0001092DA001092E10008951F920F920FB645
:1058B0000F9211242F933F934F935F936F937F9396
:1058C0008F939F93AF93BF93EF93FF938091E100EA
:1058D00082FF0BC08091E20082FF07C08091E1004F
:1058E0008B7F8093E1000E94BC2E8091DA0080FFC4
:1058F0001FC08091D80080FF1BC08091DA008E7F8E
:105900008093DA008091D90080FF0DC080E189BDCD
:1059100082E189BD09B400FEFDCF81E08093A5043A
:105920000E94C12805C019BC1092A5040E94CF286E
:105930008091E10080FF19C08091E20080FF15C0D6
:105940008091E2008E7F8093E2008091E20080618E
:105950008093E2008091D80080628093D80019BCC7
:1059600085E08093A5040E94D3288091E10084FF04
:1059700030C08091E20084FF2CC080E189BD82E1CB
:1059800089BD09B400FEFDCF8091D8008F7D809342
:10599000D8008091E1008F7E8093E1008091E20049
:1059A0008F7E8093E2008091E20081608093E2002C
:1059B0008091A104882311F084E007C08091E30066
:1059C00087FD02C081E001C083E08093A5040E94AE
:1059D000D4288091E10083FF29C08091E20083FFF9
:1059E00025C08091E100877F8093E10082E0809371
:1059F000A5041092A1048091E1008E7F8093E100C4
:105A00008091E2008E7F8093E2008091E2008061CD
:105A10008093E20042E060E080E00E94542B80919D
:105A2000F00088608093F0000E94D228FF91EF91EF
:105A3000BF91AF919F918F917F916F915F914F91A6
:105A40003F912F910F900FBE0F901F9018951F92AE
:105A50000F920FB60F9211242F933F934F935F93A2
:105A60006F937F938F939F93AF93BF93CF93DF9366
:105A7000EF93FF93C091E900CF708091EC00D82F95
:105A8000D17080FDD0E81092E9008091F000877F0E
:105A90008093F00078940E946B2D1092E900809121
:105AA000F00088608093F000CD2BCF70C093E900A8
:105AB000FF91EF91DF91CF91BF91AF919F918F9126
:105AC0007F916F915F914F913F912F910F900FBEFA
:105AD0000F901F9018951F93CF93DF93CDB7DEB72C
:105AE000AA970FB6F894DEBF0FBECDBFE6EAF4E08A
:105AF00088E08E0F9091F10091938E13FBCF0E945E
:105B0000EA288091E80083FF1FC18091A60490914C
:105B1000A704492F50E04A30510508F015C1FA0199
:105B2000EF54FF4F0C941733803881F0823809F01E
:105B30000BC18091AA048F708093E9008091EB00E3
:105B400085FB882780F91092E90006C08091A204A5
:105B50009091A304911182609091E800977F9093B7
:105B6000E8008093F1001092F100C8C0282F2D7F2B
:105B700009F0EAC0882319F0823061F0E5C0809115
:105B8000A804813009F0E0C0933009F080E08093F0
:105B9000A3042BC08091A804811127C08091AA047E
:105BA0008F7009F4D1C08093E9002091EB0020FFB1
:105BB0001CC0933021F48091EB00806214C090915E
:105BC000EB0090619093EB0021E030E0A90102C06E
:105BD000440F551F8A95E2F74093EA001092EA00BD
:105BE0008091EB0088608093EB001092E900809137
:105BF000E800877F86C08111A7C01091A8041F7795
:105C00008091E3008078812B8093E3008091E8000D
:105C1000877F8093E8000E94892B8091E80080FFB5
:105C2000FCCF8091E30080688093E300111102C0F3
:105C300082E001C083E08093A50486C08058823052
:105C400008F082C08091A8049091A9048C3D53E093
:105C5000950779F583E08A838AE289834FB7F894C0
:105C6000DE01139620E03EE051E2E32FF0E0509396
:105C70005700E49120FF03C0E295EF703F5FEF70A3
:105C80008E2F90E0EA3010F0C79601C0C0968D9339
:105C90009D932F5F243149F74FBF8091E800877FA4
:105CA0008093E8006AE270E0CE0101960E94902A9B
:105CB00014C0AE014F5F5F4F6091AA040E94D729C4
:105CC000BC01892B09F440C09091E800977F909324
:105CD000E80089819A810E94F32A8091E8008B77FD
:105CE0008093E80031C0803879F58091E800877FA3
:105CF0008093E8008091A1048093F1008091E800F6
:105D00008E778093E8000E94892B1EC081111CC0F1
:105D10009091A8049230C0F48091E800877F80932E
:105D2000E8009093A1040E94892B8091A104811125
:105D300006C08091E30087FD02C081E001C084E0DD
:105D40008093A5040E94D6288091E80083FF0AC0B2
:105D50008091E800877F8093E8008091EB0080626B
:105D60008093EB00AA960FB6F894DEBF0FBECDBFAE
:105D7000DF91CF911F9108950895CF938091A5044D
:105D80008823A1F0C091E900CF709091EC00892F99
